:020000040800F2
:10000000D804002045010008872E0008211E0008A2
:10001000852E0008E90700081131000800000000E3
:100020000000000000000000000000008B2E00080F
:10003000EB07000800000000892E00088D2E000844
:100040005F0100085F0100085F0100085F01000810
:100050005F0100085F0100085F0100085F01000800
:100060005F0100085F0100085F0100085F010008F0
:100070005F0100085F0100085F0100085F010008E0
:100080005F0100085F0100085F0100085F010008D0
:100090005F0100085F0100085F0100085F010008C0
:1000A0005F0100085F0100085F0100085F010008B0
:1000B0005F0100085F0100085F010008311E0008B1
:1000C000251E00085F0100085F0100085F010008AD
:1000D0005F010008053100085F0100085F010008AA
:1000E0005F0100085F0100085F0100085F01000870
:1000F0005F0100085F0100085F0100085F01000860
:100100005F0100085F0100085F0100085F0100084F
:100110005F0100085F0100085F0100085F0100083F
:100120005F0100085F0100085F0100085F0100082F
:10013000DFF80CD000F046FB00480047213A0008E9
:10014000D80400200648804706480047FEE7FEE73F
:10015000FEE7FEE7FEE7FEE7FEE7FEE7FEE7FEE777
:10016000EF2E000831010008202A04DB203A21FA92
:1001700002F00021704721FA02F3D040C2F12002C0
:100180009140084319467047D2B201E000F8012BB4
:10019000491EFBD270470022F6E710B513460A4607
:1001A00004461946FFF7F0FF204610BD2DE9FE4F2B
:1001B000804681EA0300C00F0C46009021F0004108
:1001C00023F00045B8EB0200A94105D24046214684
:1001D00090461C460B46024623F00040104347D091
:1001E000270DC7F30A00C3F30A510290401A019089
:1001F00040286BDAC3F3130040F4801B009892464A
:1002000020B10023D2EB030A63EB0B0B0198594694
:10021000C0F14002504600F07DF906460D465046BA
:100220005946019A00F085F910EB0800614100245D
:1002300087EA115284EAE7731A4340D0009A62B306
:10024000019A012A4FEA075215DC001B61EB0201FB
:100250004FF0004202EA0752CDE90042001C41F58E
:10026000801132462B4600F0BCF903B0BDE8F08F98
:1002700040462146F9E7001B61EB0201001C41F5F5
:10028000801300185B412018A2F5001747EB03010B
:1002900040EAD570B6196D4111E06D084FEA360697
:1002A00045EAC0754FEA0752001B61EB0201001CD2
:1002B00041F5801149084FEA30000019514132469A
:1002C0002B4603B0BDE8F04F00F07CB90098012246
:1002D00040000023D0EB020263EBE073009821465C
:1002E0004FEAE074B8EB000061EB0401E9E783F04A
:1002F00000435BE781F0004158E72DE9F04D81EACA
:10030000030404F0004B21F0004514464FF0000AAE
:1003100023F0004150EA050220D054EA01021DD02A
:10032000C5F30A570246C5F31303C1F31300C1F323
:100330000A5640F4801543F48013A7EB0608101BFF
:10034000D64608F2FD3873EB050002D308F1010828
:1003500001E092185B41B8F1000F03DA002001467A
:10036000BDE8F08D00204FF48011064684460EE073
:10037000171B73EB050705D3121B63EB050306433D
:100380004CEA010C49084FEA300092185B4150EAF0
:100390000107EDD152EA030012D082EA040083EA99
:1003A0000501084305D0101BAB4106D201220023F2
:1003B00006E000224FF0004302E06FF0010253100C
:1003C0001AEB06004CEB085110EB0A0041EB0B0155
:1003D000BDE8F04D00F0F6B870B521F000430343DE
:1003E0000CD0C1F30A550024D5EB040564EB0403DB
:1003F000D617AD1AB34102DB0020014670BD2018AC
:1004000041EB025170BD0EB5C10F80EAE0700844A7
:10041000CA07002140F233438DE80E000A460B461E
:1004200000F0DFF803B000BD00F0004230F0004003
:100430000AD0C10D01F56071C0F3160042EA015106
:10044000C20840071143704700200146704701F081
:10045000004330B421F0004150EA010206D00A0DF9
:10046000A2F56072C1F31301002A02DC30BC002047
:100470007047440F44EAC104C100E01830BC00EBEF
:10048000C25000F068B830B50B460146002020226B
:10049000012409E021FA02F59D4205D303FA02F591
:1004A000491B04FA02F52844151EA2F10102F1DCF1
:1004B00030BD2DE9F05F0546002092469B468846F8
:1004C0000646814640241BE02846414647462246D0
:1004D000FFF74AFE53465A46C01A914110D31146BF
:1004E0001846224600F016F82D1A67EB01084F4611
:1004F00022460120002100F00DF817EB00094E41C3
:10050000201EA4F10104DFDC484631462A4643465A
:10051000BDE8F09F202A04DB203A00FA02F1002017
:1005200070479140C2F1200320FA03F31943904031
:100530007047202A06DBCB17203A41FA02F043EA43
:10054000E07306E041FA02F3D040C2F1200291408C
:100550000843194670470029A8BF7047401C49004E
:1005600008BF20F00100704710B4B0FA80FC00FA18
:100570000CF050EA010404BF10BC704749B1CCF143
:10058000200421FA04F411FA0CF118BF01212143CF
:100590000843A3EB0C01CB1D4FEA00614FEA10208A
:1005A00042BF002010BC704700EBC350104400292C
:1005B000A4BF10BC7047401C490008BF20F00100D8
:1005C00010BC704710B5141E73F1000408DA401C0B
:1005D00041F1000192185B411A4301D120F0010062
:1005E00010BD2DE9F04D92469B4611B1B1FA81F252
:1005F00002E0B0FA80F220329046FFF78BFF04460B
:100600000F4640EA0A0041EA0B0153465A460843A6
:1006100013D0114653EA010019D0C8F140025046E8
:10062000FFF7A2FD05460E46504659464246FFF7E3
:1006300071FF084305D0012004E020463946BDE89B
:10064000F08D0020054346EAE0762C4337430A98B4
:100650006305E40AA0EB08000022FD0A44EA4754BF
:100660000A3002D500200146E9E701051019694169
:10067000DDE9084500196941BDE8F04DA2E72DE923
:10068000FE4F81EA030404F0004421F0004100948D
:100690004FF0000B23F0004350EA01045ED052EA11
:1006A00003045BD0C3F30A54C1F30A552C44A4F2EB
:1006B000F3340194A0FB0254C1F3130141F48011FF
:1006C000C3F3130343F4801301FB024400FB034E06
:1006D000840A970A44EA815447EA8357A4FB0768CF
:1006E00002958D0A05FB07854FEA932C04FB0C54F9
:1006F0002705029D4FEA065847EA1637B5EB08056D
:100700006EEB070C870E920E47EA811742EA8312BE
:10071000A7FB0201B6EB0B0164EB00042B0D43EACF
:100720000C335E1844EB1C50DA465146E7FB0201DD
:10073000C5F313044FEA0B3343EA14534FEA043270
:10074000019C43EA0603A4F10C040294009CCDE949
:1007500000B4FFF746FF03B0BDE8F08F002001466C
:10076000F9E7C1F30A52C1F3130140F2FF3341F438
:1007700080119A4202DA00200146704740F233436A
:100780009A42A2F2334202DC5242FFF7EDBCFFF77D
:10079000C1BE000030B5041E71F1000404DB4FF04F
:1007A0000044404264EB0101141E73F1000405DBB8
:1007B0001C464FF00043524263EB0403994208BFCA
:1007C000904230BD064C074D06E0E06840F0010362
:1007D00094E8070098471034AC42F6D3FFF7ACFC1E
:1007E000A43A0008C43A0008FEE7704772B6FEE774
:1007F00010B590F821100022022905D00421816350
:1008000080F82020012010BD01680B6823F00E0342
:100810000B6001680B6823F001030B6090F8403017
:10082000C46B012101FA03F3636080F8211080F8A2
:100830002020104610BD00002DE9F05F90F8211037
:100840000024022903D004218163012485E001688A
:100850000A6822F00E020A6001680A6822F00102AA
:100860000A603F4E3E4FB215DFF8F4C0DFF8F0905B
:10087000DFF8ECA0DFF8E8B0DFF8E4E00168783FEB
:1008800013011502ACF1640CA9F15009AAF13C0A5C
:10089000ABF1280BAEF1140E4FF48018B14227D9FA
:1008A000B9420ED0614512D049451DD0514518D0EE
:1008B000594518D0714501D1424615E0294EB14243
:1008C00001D1012210E0274E1436B14201D110228D
:1008D0000AE0244E2836B14206D0224A3C329142E8
:1008E00001D11A4600E02A461E49091F0A602BE082
:1008F000B94213D0614517D0494522D051451DD08A
:1009000059451DD0714501D142461AE0B14202D18C
:100910004FF0807215E0134EB14201D1012210E078
:10092000104E1436B14201D110220AE00D4E283685
:10093000B14206D00B4A3C32914201D11A4600E046
:100940002A46074980394A60012180F82110002198
:1009500080F82010416B01B188472046BDE8F09F28
:10096000800002400804024090F821007047000017
:100970002DE9F84FDFF8C891002409F1040A0AF1C3
:10098000040B23460F270BF1040ED1E00125A540EF
:1009900006EA0502AA4276D1DFF8A8C14E68A6EBA6
:1009A0000C0866452BD00DDC032E34D005DC36B3A5
:1009B000012E19D0022E2FD11BE0112E16D0122E8F
:1009C0002AD119E0B8F5881F19D006DCB8F5803FA8
:1009D00015D0B8F5801F1FD111E0B8F5001F0ED05B
:1009E000B8F5041F18D10AE0CB6815E0CB681B1DD1
:1009F00012E0CB6808330FE0CB680C330CE08B6857
:100A00002BB1012B4FF0080303D0456104E0042310
:100A100002E0056100E00023FF2A01D8064601E05C
:100A200000F104064FEA840501D9A5F12005D6F8A6
:100A3000008007FA05FC28EA0C0803FA05F548EAE5
:100A40000508C6F800804D68ED0070D53E4DAE69D2
:100A500046F00106AE61AD6924F0030605F001051C
:100A600000953A4D06EB050CDCF80850A607360F4A
:100A700007FA06F825EA0805DFF8D480404503D1D7
:100A80004FF0000825E052E0DFF8C880404502D171
:100A90004FF001081DE0DFF8C080404502D14FF063
:100AA000020816E0DFF8B480404502D14FF0030899
:100AB0000FE0DFF8AC80404502D14FF0040808E0B9
:100AC000DFF8A080404502D14FF0050801E04FF06B
:100AD000060808FA06F848EA0508CCF808804D68C8
:100AE000D9F80060ED034D4601D5164300E096436A
:100AF0002E604D68DAF80060AD03554601D5164307
:100B000000E096432E604D68DBF80060ED025D4624
:100B100001D5164300E096432E604D68DEF8006074
:100B2000AD02754601D5164300E096432E60641C65
:100B30000A681646E2407FF429AFBDE8F88F00004E
:100B400000040140000011100010024000000140AC
:100B500000080140000C0140001001400014014059
:100B600000180140001C01400AB1016170470904EE
:100B7000FBE7000001488068704700002C0000205F
:100B8000704770472DE9F041016804464A694E6894
:100B900090F83E000025D743FA050BD4F243D20566
:100BA00008D46FF4807201254A6121680A6842F412
:100BB00000420A60B90508D4F143C90505D422688A
:100BC0006FF4007145F002055161790525D4F143B8
:100BD000C90522D4638D94F83D10226B202808D1DA
:100BE0003BB9212910D029290ED0282901D1212A49
:100BF0000AD022686FF48061516145F00405102825
:100C000006D0402804D008E0204601F0EBFD04E0C7
:100C10002068016841F400710160380508D4F04390
:100C2000C00505D421686FF4006045F008054861EF
:100C3000002D07D0206C284320642046BDE8F041F9
:100C400001F05AB9BDE8F0812DE9F04702680021B2
:100C50005368C66A90F83E4090F83D50102C12D070
:100C6000402C10D0046C002C7DD05469E443A607BE
:100C70007AD4DE43B60577D4036C03B19169BDE83D
:100C8000F04701F08BBD976951694FF42A0CC943B5
:100C90005FEAC1784FF02A4904D066452AD04E4514
:100CA00028D010E0DE43B6050DD4C16A614501D1FC
:100CB000012103E0C16A494501D10821C162BDE8B3
:100CC000F04701F003BC0E0716D4DE43B60513D47B
:100CD000416CC9B21161416B09B1896A29B9816B53
:100CE000002907D0896A002904D00068416841F4CE
:100CF00000614160BDE8F0878E0706D4DE43B6058B
:100D000003D4BDE8F04701F035BBFE4352687607D7
:100D10004FEA02521DD4002AECDB0A0608D4DA435B
:100D2000520505D4490705D5BDE8F04701F0C6BA1C
:100D30004907DFD4D9438905DCD4212D05D0402CC7
:100D4000D8D1BDE8F04701F007BCBDE8F04701F09D
:100D500073BA002ACEDB4A060BD4DA43520508D414
:100D6000490708D501E00DE00EE0BDE8F04701F0CD
:100D7000EFB94907BED4D9438905BBD4BDE8F047D4
:100D800001F07DB9916970E7E10606D4D943890580
:100D900003D4BDE8F04701F067BD2821212D27D0FD
:100DA000292D25D0650655D4DD436D0552D4640741
:100DB00052D590F83D30448D002C9BD01269446A86
:100DC0002270426A521C4262428D521E4285428DFE
:100DD000002A8FD12A2B8DD10268536823F48063B7
:100DE00053602222026380F83D1000F019FB81E776
:100DF000250623D4DD436D0520D4640720D590F863
:100E00003D30448D002CF2D0446A24781461426A4B
:100E1000521C4262428D521E4285428D002AE6D10A
:100E2000292BE4D10268536823F4806353602122A4
:100E3000026380F83D1000F0F4FA5BE76107D6D456
:100E4000D9438905D3D4418D0029D0D0416A09788E
:100E500011610AE06107CAD4D9438905C7D4418D1D
:100E60000029C4D01169426A1170416A491C41626B
:100E7000418D491E41853DE77047000070B5040073
:100E800025D094F83D00002520B984F83C50204638
:100E900000F07EFA242084F83D002068016821F0EB
:100EA000010101602068016841F40041016020688F
:100EB000016821F40041016000F0E2FB4D4A6168E5
:100EC000914201D84C4900E04C49884201D20120AE
:100ED00070BD4B492368B0FBF1F15E6826F03F0618
:100EE0000E435E606368934206D94FF4967359438C
:100EF0004FF47A73B1FBF3F12368491C1E6A26F0A4
:100F00003F06314319626168914210D84900401E82
:100F1000B0FBF1F2521CC2F30B02042A01D20420EE
:100F200022E0B0FBF1F0401CC0F30B001CE0A26813
:100F3000F2B301EBC10303EB0116431EB3FBF6F35F
:100F40005B1C43F480431B0549D092B301EBC10203
:100F500002EB0111401EB0FBF1F0401CC0F30B008E
:100F600040F4804040F400402168CA694CF6FF73A9
:100F70009A431043C861D4E907100143206802680E
:100F800022F0C00211430160D4E90301014320684B
:100F9000826848F2FF339A4311438160D4E9050126
:100FA00008432168CA6822F0FF021043C86001E0CC
:100FB0000EE016E02068016841F00101016025643F
:100FC000202084F83D00256384F83E50002070BD49
:100FD00001EB4106431EB3FBF6F35B1CB3E70120B4
:100FE000C2E701EB4101401EB0FBF1F0401CC0F331
:100FF0000B00B7E7A086010080841E0000093D00B9
:1010000040420F00704770477047704770470000BC
:101010002DE9FF4F83B00025DDE910799A4693460C
:101020000446DDF848800095FFF7A4FD064694F8D5
:101030003D0020287CD119230122854920460096B5
:1010400001F0E6FC0028F5D194F83C0001286FD0AF
:10105000012084F83C0020680168C90703D10168B9
:1010600041F0010101602068016821F40061016024
:10107000222084F83D00402084F83E002564676209
:10108000A4F82A90608D20857248E062CDE9008640
:1010900053465A462046049901F0AEFA00287DD105
:1010A000208DDFF8B491202768B1012814D00228E0
:1010B000206801681ED041F48061016020684169A8
:1010C00080690090B6E020684169816900910168FB
:1010D00041F400710160ADE02068016821F4806195
:1010E000016072B62068416981690091016841F42C
:1010F00000710AE041F40061016072B62068416944
:1011000081690091016821F48061016062B691E01B
:10111000032868D801280CD0022843464FF000026B
:101120004946204600960FD001F072FCB0BB10E09B
:101130008BE032464146204601F0E9FC70BB206856
:101140000069616A08706CE001F062FC30BB72B645
:1011500034E02068016821F48061016072B6206883
:101160000069616A0870606A401C6062208D401EE0
:101170002085608D401E6085384846F2A8110068C1
:10118000B0FBF1F0C0EBC00000EB80000090401E0F
:10119000009008D020684069C04300E029E0400783
:1011A0000CD50098F3E744F8305F6773A5732069A6
:1011B00040F02000206162B625731AE020680168C3
:1011C00041F40071016020680069616A0870606A1A
:1011D000401C6062218D491E2185618D491E6185FB
:1011E00062B621681BE032464146204601F08FFC82
:1011F00018B1012007B0BDE8F08F20680069616A6E
:101200000870606A401C6062218D491E2185618DD5
:10121000491E618521684A69D24352070AD4096987
:101220000170606A401C6062208D401E2085608DC8
:10123000401E6085208D00287FF46AAF84F83D70E1
:1012400084F83E5084F83C50D4E70220D2E70000F6
:10125000020010000000FFFF040001003800002021
:101260002DE9FF4F83B09A46DDE911979346044676
:10127000DDF84080FFF77EFC054694F83D0020280D
:101280007FD11923012240492046009501F0C0FB7F
:10129000002876D194F83C00012872D0012084F80F
:1012A0003C0020680168C90703D1016841F00101D1
:1012B00001602068016821F400610160212084F848
:1012C0003D00402084F83E0000262664C4F82480B7
:1012D000A4F82A90608D20852C48E062CDE9007545
:1012E00053465A462046049901F004FA70B930E09A
:1012F0002A463946204601F03DFC58B1206C0428AE
:1013000004D12068016841F400710160012007B038
:10131000BDE8F08F606A216800780861606A401C4F
:101320006062218D491E89B22185628D521E6285BF
:1013300022685369DB435B070BD469B10078106105
:10134000606A401C6062208D401E2085608D401EBA
:101350006085208D0028CBD12A463946204601F0F1
:1013600031FB0028CAD154F83D0B016841F40071EB
:101370000160202004F81E09E67766770020C6E7A2
:10138000FFE70220C3E70000020010000000FFFF9B
:1013900010B586B00021009101910291039100687F
:1013A0001B49884232D11B4CA06940F00800A06163
:1013B000A069694600F0080004904FF44070009066
:1013C00012200190032003901348FFF7D1FA13482D
:1013D000416841F0E06141F002014160E06940F4A0
:1013E0000010E061E069002200F400100490114652
:1013F0001F2000F07DF81F2000F06CF8002211463D
:10140000202000F075F8202000F064F806B010BD30
:101410000054004000100240000C01400000014058
:1014200070477047024881680278114481607047B4
:101430002C000020074810B5016841F01001016040
:10144000032000F075F80F2000F006F800F024F8F3
:10145000002010BD0020024070B50D4D04464FF431
:101460007A712878B1FBF0F00A490968B1FBF0F015
:1014700000F0ECFA48B9102C07D200222146501E89
:1014800000F036F800206C6070BD012070BD0000D7
:101490002C000020380000200C4808B5816941F07C
:1014A00001018161816901F001010091C16941F08F
:1014B0008051C161C06900F08050009004484168CB
:1014C00021F0E06141F00071416008BD0010024070
:1014D00000000140002809DB00F01F0201219140BB
:1014E0004009800000F1E020C0F8001170470000C2
:1014F000F0B40E4B1B680C46C3F30223C3F107057F
:10150000042D00D90425191D072901D2002300E06C
:10151000DB1E012606FA05F1491E214099409E4036
:10152000761E16403143F0BC01F004BE0CED00E025
:10153000064900F0070208684FF6FF03184040EA2A
:101540000220034A10430860704700000CED00E0E1
:101550000000FA052DE9F0470F46050061D0434E23
:10156000306800F00700B84209D2306820F0070068
:1015700038433060306800F00700B84251D1286825
:101580003B4C810712D5400703D5606840F4E0600A
:1015900060602878000703D5606840F460506060A0
:1015A0006068A96820F0F000084360602878C007F0
:1015B00028D06868012810D02168022810D0890737
:1015C00000292EDA616821F0030101436160FFF711
:1015D000D1FA804641F288390DE021688903EFE7AE
:1015E0008901EDE7FFF7C6FAA0EB0801494502D9EA
:1015F0000320BDE8F0876068696800F00C00B0EB7C
:10160000810FEFD1306800F00700B8420BD9306885
:1016100020F0070038433060306800F00700B8421F
:1016200001D00120E5E72878400705D56068E96822
:1016300020F4E060084360602878000706D5606801
:10164000296920F4605040EAC100606000F038F879
:101650006168084AC1F30311515CC840064908603B
:1016600006480068FFF7F8FE0020C2E700200240AD
:10167000001002408C3A00083800002030000020A2
:101680000448054900684968044AC1F30221515CD5
:10169000C840704738000020001002409C3A000803
:1016A0000448054900684968044AC1F3C221515CF5
:1016B000C840704738000020001002409C3A0008E3
:1016C00012A185B00FC98DE80F0014A0144A00685C
:1016D00004905168134801F00C03042B10D0082B20
:1016E0000ED1C1F38343C9031DF803000AD5516825
:1016F00004AAC1F34041515C0A4A5043B0FBF1F0E7
:1017000005B0704708494843FAE7000002030405A2
:10171000060708090A0B0C0D0E0F1010010200003D
:101720000010024000127A0000093D002DE9F84F38
:10173000040070D02078C04DC00749D06868C0F35D
:101740008100012807D06868C0F38100022809D110
:101750006868C00306D52868800339D5606800280A
:10176000E7D035E06068B0F5803F0BD010B1B0F540
:10177000A02F11D0286820F480302860286820F439
:10178000802002E0286840F480302860606890B1D2
:10179000FFF7F0F906460AE0286840F48020286048
:1017A000F0E700BFFFF7E6F9801B642873D82868CC
:1017B0008003F7D50CE0FFF7DDF9064605E000BF32
:1017C000FFF7D8F9801B6428F0D828688003F7D485
:1017D00020789A4E80074FF001094FF0000839D564
:1017E000686810F00C0F07D06868C0F38100022809
:1017F00009D16868C00306D42868800714D5206919
:10180000012808D110E02069B0B1C6F80090FFF7B8
:10181000B1F9074605E00AE1FFF7ACF9C01B022861
:10182000C4D828688007F7D52868616920F0F800D7
:1018300040EAC10028600DE0C6F80080FFF79AF981
:10184000074604E0FFF796F9C01B022823D8286852
:101850008007F7D4207800072CD57948A169D9B141
:10186000C0F80090FFF786F9074604E0FFF782F919
:10187000C01B02280FD8686A8007F7D571484FF45B
:10188000FA510068B0FBF1F0009000BF0098411ED3
:101890000091FAD20EE080E0C0F80080FFF76AF90C
:1018A000074604E0FFF766F9C01B022875D8686A8E
:1018B0008007F7D42078400760D5E8690027C0008A
:1018C00008D4E86940F08050E861E869012700F039
:1018D000805000905C480168C90513D401688346B4
:1018E00041F480710160FFF745F9824606E000BFD0
:1018F000FFF740F9A0EB0A0064284ED8DBF800009F
:10190000C005F5D5E06801280AD008B1052813D034
:10191000286A20F001002862286A20F0040002E012
:10192000286A40F001002862E06841F2883B98B1E3
:10193000FFF720F982460BE0286A40F00400286295
:10194000EEE700BFFFF716F9A0EB0A0159455AD898
:10195000286A8007F6D50CE0FFF70CF9824605E00F
:10196000FFF708F9A0EB0A0159454CD8286A80070F
:10197000F6D41FB1E86920F08050E861E06988B3CF
:101980006968C1F38101022944D00228C6F8608049
:1019900004D0FFF7EFF8044638E034E0FFF7EAF848
:1019A000074604E0FFF7E6F8C01B02282BD828689A
:1019B0008001F7D4206AB0F5803F05D16868A1683E
:1019C00020F4003008436860D4E9080108436968DE
:1019D00021F4741108436860C6F86090FFF7CAF8F4
:1019E000044606E025E000BFFFF7C4F8001B02280C
:1019F00009D828688001F7D51BE000BFFFF7BAF8C7
:101A0000001B022802D90320BDE8F88F2868800156
:101A1000F4D40EE00128F7D06868226A00F480311F
:101A2000914204D1616A00F47010884201D0012013
:101A3000EAE70020E8E70000001002400000424210
:101A400080044242380000200070004010B5401E63
:101A5000B0F1807F01D3012010BD4FF0E024606120
:101A60000F21601701F066FB0020A06107202061B4
:101A7000002010BD70477047F8B502680446106832
:101A8000D168536910F00F0F4FF0000554D003F0E8
:101A9000010601F4907737435FD0C20705D0CA052D
:101AA00003D5226C42F001022264420705D5DA0711
:101AB00003D0226C42F002022264820705D5DA07C5
:101AC00003D0226C42F004022264020707D501F021
:101AD0002002324303D0226C42F008022264226CBE
:101AE000002A35D0800604D5880602D5204601F0AC
:101AF0001FFA20684069216CC0F3801001F00801D2
:101B00000143204625D001F0FBF9206841694906D0
:101B10001BD5416921F040014161A06BA8B1584932
:101B20004163A06BFEF788FE002811D0A06B416BCB
:101B300001B0BDE8F040084783060ED58B060CD5F2
:101B40002046BDE8F84001F0F3B92046FFF793FFC7
:101B5000F8BDFFF790FF2564F8BD266B2023012E0A
:101B600052D1C60650D5CE064ED5106850680090AA
:101B7000506940062AD5A16B086840680004000C33
:101B8000EAD0A68D8642E7D9E0858869202818D05A
:101B9000D06820F48070D0602068416921F0010194
:101BA00041612068416921F04001416184F83E3083
:101BB00025632068C16821F01001C160A06BFEF7A9
:101BC00017FEA08DE18D401A81B219E0A08DE18D44
:101BD000401A81B2E08D0028BED00029BCD0D06868
:101BE00020F49070D0602068426922F001024261C6
:101BF00084F83E3025632068C26822F01002C2607B
:101C00002046FFF737FFF8BD05062BD50D0629D571
:101C100094F83D002128F6D1A068B0F5805F01D18D
:101C20002069B0B1206A411C2162216800784860B7
:101C3000E08C401E0004000CE084E4D12068C16800
:101C400021F08001C1602068C16841F04001C1609D
:101C5000F8BD206A0088C0F308005060206A801C2C
:101C60002062E5E74006F3D54806F1D5D168204665
:101C700021F04001D16084F83D3000F0D0F8F8BD8B
:101C8000F12E000870B5040004D094F83D00002542
:101C900010B106E0012070BD84F83C50204600F0F1
:101CA00023F8242084F83D002068C16821F4005105
:101CB000C160204601F098F92068016921F4904143
:101CC00001612068416921F02A0141612068C168F1
:101CD00041F40051C1602564202084F83D0084F85F
:101CE0003E00002070BD000030B585B00024009497
:101CF0000194029403940068184988422CD1184832
:101D0000816941F480418161816901F480410491DC
:101D1000816941F0040181618069124D00F0040085
:101D200004904FF400700090022001900320039073
:101D300069462846FEF71CFE2815CDE900046946D1
:101D400028460294FEF714FE002211462520FFF7D4
:101D5000CFFB2520FFF7BEFB05B030BD00380140AA
:101D60000010024000080140704700002DE9F843D0
:101D7000044690F83D001F4616460D4620284CD1DB
:101D8000C5B1BEB194F83C00012846D0012084F8CA
:101D90003C004FF00008C4F84080212084F83D004A
:101DA000FEF7E8FEA6848146E684A068B0F5805F71
:101DB00003D004E00120BDE8F883206928B12E4655
:101DC0005FF0000584F83C800EE00026FAE78021F1
:101DD000204601F065F9A0B9AEB116F8010B2168F3
:101DE0004860E08C401EE084E08C4B464FF00002DF
:101DF00000970028EBD14FF04001204601F050F948
:101E000030B10320D7E735F8020BC0F30800E6E74E
:101E1000202084F83D000020CDE70220CBE770476A
:101E2000FEE700000148FEF7ADBE000040000020C4
:101E30000148FEF709BF00004000002038B5406AA5
:101E4000002190F83D202B4B46F2A8141B68B3FBF1
:101E5000F4F3C3EBC30303EB830300933BB15B1EBB
:101E6000009303681B689B0505D5009BF6E7036C90
:101E700043F020030364436B03B19962836B03B1A6
:101E8000996203681C6824F480641C604185436B7C
:101E900003B15963836B03B1596303681C6824F071
:101EA00001041C6090F83D402023602C0BD02824B6
:101EB00034EA02020FD080F83D3080F83E1000BFB7
:101EC000FEF7DAFF38BD80F83D3080F83E1001643F
:101ED000FEF756FE38BD0268136843F00103136035
:101EE0000268136843F480631360016380F83D4027
:101EF000E6E700003800002070B5044690F83D0089
:101F000094F83E10102901D0402906D1222804D18E
:101F100021680A6822F400620A60282131EA00027E
:101F20004FF000054FF0200626D0216849680905CA
:101F300005D4602803D084F83D6084F83E502563C2
:101F400020684168090537D5416821F40061416086
:101F5000606B3D4990F82120012A11D04163606BEC
:101F6000FEF76AFC38B32068016821F001010160C6
:101F700084F83D60606B1CE0256384F83D10DFE76A
:101F8000A06B4163A06BFEF757FCA0B120684169CC
:101F9000C943490605D40069616A0870606A401C3B
:101FA00060622068016821F00101016084F83D60F1
:101FB000A06B416B884710E094F83D10602910D069
:101FC0004169C943490605D40069616A0870606ABD
:101FD000401C60622046FEF74FFF206CC1071CD1F9
:101FE00015E084F83D6025644169C943490605D47C
:101FF0000069616A0870606A401C6062206801685C
:1020000021F0010101602046FEF7BAFDE5E78107F6
:1020100003D4410701D4000704D52068416821F4A6
:10202000E061416094F83D00216C49070BD52828F8
:1020300009D10648E062256384F83D6084F83E508B
:102040002046FEF7DFFF70BD3D1E00080000FFFFC9
:1020500001684A69D24352050FD46FF480624A6125
:10206000002140F8301F202242738173026942F040
:10207000040202610173012070470020704710B50F
:10208000C26A438D0168042B06D0438D032B08D010
:10209000438D022B1DD012E04A6822F480624A6010
:1020A0000CE04B6823F480634B60042A06D0022ABC
:1020B00004D001680A6822F480620A600168096934
:1020C000426A1170416A491C4162418D491E418535
:1020D00010BD012A30D0102A2ED0042A30D0022A76
:1020E0002ED00A6842F400720A6001680969426AE7
:1020F0001170416A491C4162428D521E428502683C
:1021000012690A70416A491C4162418D491E41852C
:1021100001684A6822F440724A60202180F83D102C
:1021200090F83E200021402A80F83E100CD0122169
:102130000163FEF768FF10BD0A6822F48062D3E7EE
:102140000A6842F48062CFE70163FEF75EFF10BDCC
:1021500038B590F83D10222914D1418D032912D9A8
:1021600001680969426A1170416A491C4162418DE6
:10217000491E4185418D032904D10068416821F43D
:102180008061416038BDC26A022AFBD0012901D0BA
:102190000029F7D1274946F2A81300220968B1FBAC
:1021A000F3F101EB8101009101682023009C641E82
:1021B000009422D00C68A405F8D40C6824F4806440
:1021C0000C6001684C6824F4E0644C6001680969A3
:1021D000446A2170416A491C4162418D491E418512
:1021E00080F83D3090F83E1080F83E2040291DD008
:1021F00012210163FEF707FF38BD046C44F0200490
:1022000004644C6824F4E0644C6001680969446A21
:102210002170416A491C4162418D491E418580F807
:102220003D3080F83E20FEF727FE38BD0263FEF702
:10223000ECFE38BD3800002010B5C26A90F83D10A1
:1022400021290BD1418D51B1416A02680978116190
:10225000416A491C4162418D491E418510BD2023C0
:102260000021082A13D0202A11D012F5803F0ED069
:102270000268546824F4E06454601122026380F818
:102280003E1080F83D3000BFFEF7BEFE10BD026874
:10229000546824F4E06454600268146844F40074E0
:1022A0001460016380F83D3090F83E2080F83E10C5
:1022B000402AE9D1FEF7AAFE10BD000010B590F843
:1022C0003D1090F83E30C26A048DB4B1212903D08C
:1022D000402B11D122290FD1418DE1B390F83E104E
:1022E000402942D0416A026809781161416A491C5B
:1022F0004162418D491E418510BD2129E8D120232D
:102300000021082A13D0202A11D012F5803F0ED0C8
:102310000268546824F4E06454601122026380F877
:102320003E1080F83D3000BFFEF76EFE10BD026823
:10233000546824F4E06454600268146844F400743F
:102340001460016380F83D3090F83E2080F83E1024
:10235000402AE9D100E002E0FEF758FE10BD006817
:10236000416821F48061416010BDBDE8104000F07B
:10237000F3B8000078B590F83E50C26A046B90F84C
:102380003D6000230168222E73D1066D0EB9402DE9
:102390006FD0056D1DB90569B5F5404F1BD0458D52
:1023A00095B3468D484D012E20D0448D022C4DD042
:1023B0000C6844F480640C6001684C68240579D58D
:1023C000AA4273D0012A71D0082A6FD0102A6DD08A
:1023D000202A6BD06EE04A698A6900920A6842F44A
:1023E00080720A60016D491C016578BDAA4214D152
:1023F0000A6822F480620A6001684A68120504D5FE
:102400000A6822F4806217E0FFE74A698A6900924D
:102410000A6842F400720A6050E0082A10D0202AAC
:102420000ED0122C0AD0042A03D0022A01D0102A7E
:10243000E6D10A6842F480620A603BE0012ADFD0FC
:102440000A6822F480620A600168DEE7042A11D07B
:10245000022A0FD0102A0DD00C6844F400640C60DE
:1024600001684C698C6900940C6824F480640C60E9
:1024700008E025E00C6844F480640C6001684C6955
:102480008969009101684C68240517D5AA4207D0D4
:10249000012A05D0082A03D0102A01D0202A0DD104
:1024A0004A6842F480524A6008E0FFE74A6842F412
:1024B00080524A6001684A6989690091036578BD64
:1024C00048698869009078BD0000FFFF90F83E10D1
:1024D000402910D00169B1F5804F19D0016DA9B321
:1024E000016D012910D1416C5FF0F10201F44071DE
:1024F00042EAD11106E0016D0029416C05D0C9B254
:1025000041F0010100680161704701F0FE01F9E747
:1025100090F83D102129416C09D0C9B241F0010168
:1025200002681161416B29B1896A49B902E001F081
:10253000FE01F5E7816B0029E6D0896A0029E3D026
:102540000068416841F4006141607047FFE7416CF9
:10255000F02201F44071CBE710B590F83D10026D08
:1025600022B3026D012A2FD0026D022A1DD1222929
:102570002FD0428D0AB1212933D0428D002A14D1A7
:10258000212912D101684A6822F4E0624A60016898
:102590000A6842F400720A6000210163202280F878
:1025A0003D2080F83E10FEF731FD10BDC16C0129C1
:1025B000816C02D0C1F3072108E00268C9B2116141
:1025C000016D891C016510BD816CC9B20268116181
:1025D00004E001680A6842F480720A60016D491CD7
:1025E000F0E7416A026809781161416A491C416259
:1025F000418D491E418510BD2DE9F84F0446006804
:1026000089460B9D01689846174641F48061016038
:102610002068016841F48071016000954FF0011B52
:102620000022594620460A9B00F0F2F94FF4007A46
:1026300040B120680068C00501D5C4F840A003205F
:10264000BDE8F88F216809F0FE0008612B46284993
:1026500020460A9A00F010FAF0BB206841698069B0
:1026600000902A4620460A9900F084FA40B1206C76
:1026700004283AD12068016841F40071016034E017
:10268000FEB2B8F1010F09D02168380A08612A4664
:1026900020460A9900F06EFA0028E8D12068066109
:1026A0002A4620460A9900F065FA0028DFD1206802
:1026B000016841F48071016000950022594620466E
:1026C0000A9B00F0A5F90028B3D1216809F0FF00AA
:1026D00040F00100086100E007E02B460449204675
:1026E0000A9A00F0C9F90028AAD00120A8E7000042
:1026F000020001002DE9F843044600680D46DDE9BB
:10270000089701689846164641F4807101604B466F
:1027100000224FF001112046009700F079F948B1EE
:1027200020680068C00502D54FF4007020640320C3
:10273000BDE8F883216805F0FE0008613B464A4683
:102740001549204600F098F988B9206841698069E8
:1027500000903A464946204600F00CFA48B1206CF9
:10276000042804D12068016841F40071016001204F
:10277000DEE7F5B2B8F1010F09D02168300A08612F
:102780003A464946204600F0F5F90028E7D120688E
:1027900005610020CCE700000200010038B50C46BE
:1027A00090F83D2000212825954302680B4605D06E
:1027B00051699169009180F83C3038BD556825F425
:1027C00080655560E243540700D50121120601D50A
:1027D000828900E0028B80F83C3092B2FEF7D1F99A
:1027E00038BD00002DE9F04190F83D40C26A002359
:1027F00020261C4F01686FF48065082A01D0202A2A
:1028000001D1282C04D0212C16D04D61BDE8F081D7
:10281000C7624A6822F4E0624A6001684D6101685B
:102820000A6822F480620A60036380F83D6080F8E1
:102830003E30FEF7E7FBE9E7C7622122026380F83A
:102840003D6080F83E304A6822F4E0624A600168E8
:102850004D6101680A6822F480620A60FEF7E1FDBA
:10286000D4E700000000FFFFF8B590F83D60044693
:102870000068416821F4E0614160206800254169F9
:102880000091016841F0010101602068016821F4B4
:102890008061016020684168090520D5474F222EDC
:1028A00048D02A2E46D0616B096849686185618DE0
:1028B00019B1216C41F004012164416821F40061E7
:1028C0004160606BFEF750F8012808D0606B4763E9
:1028D000606BFDF7B1FF10B1606B416B8847608D95
:1028E00008B320684169C943490708D40069616A8F
:1028F0000870606A401C6062608D401E60852068C0
:102900004169C943490608D40069616A0870606A70
:10291000401C6062608D401E6085608D18B1206C27
:1029200040F004002064206C00B32046BDE8F8406D
:10293000FFF7E2BAA16B096849686185618D19B139
:10294000216C41F004012164416821F4006141607F
:10295000A06BFEF709F80128C1D0A06B4763A06BFC
:10296000FDF76AFF0028BAD0A06BB6E72A2E06D181
:102970002563282084F83D002046FEF751FD94F899
:102980003D10202028290DD0216B222901D0222E94
:1029900007D1256384F83D0084F83E502046FEF7B9
:1029A0003FFDF8BD0649E162256384F83D0084F8E7
:1029B0003E502046FEF726FBF8BD00003D1E0008F5
:1029C0000000FFFF70B516460D4604460DE0204698
:1029D000FFF73EFB08B1012070BD681C05D0FEF773
:1029E000C9F8801BA84207D835B120684069C043A8
:1029F0004007ECD4002070BD002044F8300F2021A7
:102A00006173A073216941F0200121612073E2E725
:102A10002DE9F0471E4690460D460446C1F3074790
:102A2000DDF8209008E0701C06D0FEF7A3F8A0EBBC
:102A30000900B0420FD876B12068012F18D0806904
:102A400025EA00000004000C14D000214145EAD022
:102A50000020BDE8F087002044F8300F202161738A
:102A6000A073216941F02001216120730120F0E76A
:102A70004069E5E70121E9E72DE9F0479A469146EB
:102A80000E46044600254FF02008C1F3074725E015
:102A900020684069C043400514D42068016841F4AF
:102AA0000071016021686FF480604861256384F8DB
:102AB0003D8084F83E50206C40F00400206484F88F
:102AC0003C501FE0B9F1FF3F08D0FEF753F8A0EBF0
:102AD0000A0149450CD8B9F1000F09D02068012F2F
:102AE00013D0806926EA00000004000C0BD0CFE769
:102AF00044F8305F84F80D80A573206940F0200011
:102B0000206125730120BDE8F0874069EAE72DE9DF
:102B1000F041002590460E460446202717E0406904
:102B2000C043C0060CD454F8301B6FF0100048614D
:102B300044F810596777A577206A2062257717E057
:102B4000FEF718F8A0EB0800B04208D83EB12068A4
:102B50004169C9434906E2D40020BDE8F08144F848
:102B6000305F6773A573206940F0200020612573F2
:102B70000120F2E770B516460D4604460DE02046EA
:102B8000FFF766FA08B1012070BD681C05D0FDF79B
:102B9000F1FF801BA84207D835B120684069C043C7
:102BA0000006ECD4002070BD002044F8300F202136
:102BB0006173A073216941F0200121612073E2E774
:102BC000F0B585B0012504A8CDE900054FF47A746D
:102BD0002B467522D12102941B48FEF719FA9DF865
:102BE000100068282ED1002703AE8DF80C700096D7
:102BF000CDE9015401236B22D1211348FEF730FBAC
:102C000007208DF80C000096CDE90154012319220C
:102C1000D1210D48FEF724FB8DF80C700096CDE90C
:102C2000015401231C22D1210748FEF719FB8DF81E
:102C30000C700096CDE9015401231B22D1210248DA
:102C4000FEF70EFB05B0F0BD40000020F0B585B0EA
:102C50004FF47A72062103A88DE8070001233B2276
:102C6000D1211848FEF7D4F9BDF80C00164C40BA33
:102C700000B22080BDF80E1049BA0EB26680BDF8D1
:102C8000101049BA0DB2A580FDF7BDFB6FF00D071E
:102C90003A46FDF7A1FBFDF7DAFB20613046FDF770
:102CA000B2FB3A46FDF798FBFDF7D1FB6061284681
:102CB000FDF7A9FB3A46FDF78FFBFDF7C8FBA061C6
:102CC00005B0F0BD4000002000000020F0B585B048
:102CD0004FF47A72062103A88DE8070001234322EE
:102CE000D1211948FEF794F9BDF80C00174C40BAF1
:102CF00000B2E080BDF80E1049BA0EB22681BDF8D0
:102D0000101049BA0DB26581FDF77DFB104F00220E
:102D10003B46FDF7F2FAFDF79AFBE0613046FDF71E
:102D200072FB00223B46FDF7E8FAFDF790FB2062BC
:102D30002846FDF768FB00223B46FDF7DEFAFDF76B
:102D400086FB606205B0F0BD40000020000000205E
:102D50000060604010B586B04FF47A72022103A87B
:102D60008DE8070001234122D1210C48FEF750F9DC
:102D7000BDF80C000A4C40BA00B2A0814FF4AA7111
:102D800090FBF1F0FDF73FFB064A074BFDF70EFA0B
:102D9000FDF75DFBA06206B010BD00004000002002
:102DA00000000020A4703D0AD743424030B585B0F2
:102DB000002414480094019402940394816941F022
:102DC00004018161816901F004010491816941F08C
:102DD0000801816180690C4D00F008000490002218
:102DE00040212846FDF7C0FE402000900120CDE99B
:102DF00001040220039069462846FDF7B9FD05B09D
:102E000030BD000000100240000801400D4810B520
:102E10000B4901600C49416000214FF48042816000
:102E2000C0E9031241618161C1610162FEF726F8C8
:102E3000002803D0BDE81040FDF7D8BC10BD00004D
:102E40000054004040000020A08601000C4810B54E
:102E50000A4901604FF4E1314160002181600C2298
:102E6000C160C0E904128161C161FEF70BFF002857
:102E700003D0BDE81040FDF7B9BC10BD00380140DB
:102E800094000020FEE7FEE770477047FEF7CABADD
:102E900030B58FB028216846FDF77DF914210AA8C6
:102EA000FDF779F901210804CDE90010002402940E
:102EB00002250491CDE907504FF4E01009906846CF
:102EC000FEF734FC08B172B6FEE70F20CDE90A0523
:102ED0004FF48060CDE90C4002210AA80E94FEF761
:102EE00039FB002801D072B6FEE70FB030BD704745
:102EF00010B5406A0021C185C184FEF7BCFD10BD3C
:102F00000168CA6822F49072CA6001684A6922F0B6
:102F100001024A61016B012904D10168CA6822F0EB
:102F20001002CA60202180F83E1000210163704722
:102F300008B590F83E10222901D0022008BD826811
:102F40004FF480539A4201D1016921B1816A9A42BA
:102F50001BD04AB10AE00268816A5268C2F30802D3
:102F60000A80816A891C08E0026972B102685268AD
:102F700002F07F020A70816A491C8162C18D491E7C
:102F80000904090CC18503D019E002685268F1E711
:102F90000168CA6822F02002CA600168CA6822F487
:102FA0008072CA6001684A6922F001024A612021E8
:102FB00080F83E10016B012903D0FEF7D5FE0020FA
:102FC00008BD002101630168CA6822F01002CA60CE
:102FD00001680A68D20602D50A6849680091818DA5
:102FE000FEF748FDEBE7000070B504460068016994
:102FF000E26821F44051114301612169A06808434E
:10300000616908432168CA6841F20C639A4302432C
:10301000CA6020684169A26921F44071114341618D
:103020001E492068884202D1FEF73AFB01E0FEF714
:1030300027FB00EBC00101EB0012606864218000F7
:10304000B2FBF0F3B3FBF1F36FF018067343B2FB7E
:10305000F0F5B2FBF0F605EB8305322303EB051523
:10306000B5FBF1F5B6FBF1F605F0F00505EB06153D
:10307000B2FBF0F6B2FBF0F0B0FBF1F06FF018022B
:10308000504306EB800003EB0010B0FBF1F0216829
:1030900000F00F002844886070BD00000038014037
:1030A0002DE9F041984617460E460446069D1DE060
:1030B000681C1BD02DB1FDF75DFDA0EB0800A842F8
:1030C00014D92068C16821F4D071C16020684169B9
:1030D00021F001014161202084F83D0084F83E0088
:1030E000002084F83C000320BDE8F08120680068DF
:1030F00036EA000004D00020B842D9D00020F3E71F
:103100000120F9E70148FEF7B7BC00009400002059
:10311000FEE700000FB4054B10B503A9044A02985E
:1031200000F0DAF810BC5DF814FB0000093A000862
:103130003C0000200907090E002804DB00F1E02014
:1031400080F80014704700F00F0000F1E02080F8D4
:10315000141D704702E008C8121F08C1002AFAD1E6
:1031600070477047002001E001C1121F002AFBD107
:10317000704700002DE9FF5FDDE90220010DDDF859
:1031800038B0024318D044F61050A1F2FF31414349
:103190000D140F98012820D0A5EB0B00401C5FEA0E
:1031A000000A4FF00004474EDFF81C91A04650463D
:1031B00016D5CAF1000728E00F98012443A2012880
:1031C00008D0002100980F9BC0E90021C0E902430C
:1031D000BDE8FF9F6FEA0B01F4E7CBF10000DEE7EB
:1031E000074612E0F80707D02246334640464946D4
:1031F000FDF745FA80468946224633461046194671
:10320000FDF73DFA04460E467F10002FEAD1DDE9B6
:103210000201BAF1000F42464B4602DAFDF72FFADF
:1032200001E0FDF76AF804460E460022284BFDF740
:10323000B1FA03D84FF0FF30014607E00022254BDA
:1032400020463146FCF7B2FFFDF78BFA102409E067
:10325000002C0ADB0A220023FDF72BF9019B3032F8
:103260001A55641E50EA0102F2D1641C019AC4F19D
:10327000110314440F9A012A03D0012208430DD1EF
:103280000AE0084304D000204FF0110B0F9080E7B4
:10329000A3EB0B056D1E0DE05B4504DD4FF0000256
:1032A00005F1010504E003DA4FF00002A5F1010584
:1032B000002AECD000980F99C0E90231C0E900451E
:1032C00086E70000000024400000F03F30000000CE
:1032D0000000F0430000E03F2DE9FF4F95B09B4612
:1032E0008946064600250FE2252877D10024274687
:1032F000F84A0121059400E0044316F8013F203B01
:1033000001FA03F01042F7D130782A2811D06FF07B
:103310002F033078A0F13002092A16D8059A44F01C
:10332000020402EB820203EB42021044761C059079
:10333000EFE759F8042B0592002A03DA504244F4CF
:103340000054059044F00204761C30782E2816D1E3
:1033500016F8010F44F004042A280DD06FF02F0254
:103360003078A0F13003092B09D807EB870302EB73
:103370004303C718761CF3E759F8047B761C3078B2
:103380006C280FD006DC4C2817D068280DD06A288E
:1033900014D104E0742810D07A280FD10DE044F441
:1033A00000140AE044F4801401E044F440147278FC
:1033B000824202D104F58014761C761C307866288F
:1033C0000BD013DC582877D009DC002875D04528AD
:1033D000F6D04628F4D047281AD19DE118E063289A
:1033E00035D0642879D0652812D195E1702873D042
:1033F00008DC6728F1D069286FD06E280DD06F28BF
:1034000006D1B5E073282CD0752875D0782874D0F3
:103410005A46179990476D1C75E1C4F30250022873
:1034200009D003280DD0D9F8001004280DD00D6064
:1034300009F1040967E1D9F80010EA17C1E900525F
:10344000F6E7D9F800100D80F2E70D70F0E719F8F3
:10345000041B8DF8001000208DF80100EA460120C1
:1034600003E059F804AB4FF0FF3061074FF0000163
:1034700002D40DE008F101018846B9420FDA804517
:10348000F8DB1AF808100029F4D108E008F101016E
:1034900088468142FADB1AF808100029F6D105980F
:1034A0005B46A0EB080721463846179A00F094FACD
:1034B000284400EB080507E04DE029E10DE01AF88B
:1034C000010B5A4617999047B8F10108F7D25B46AD
:1034D00021463846179A13E142E00A220092C4F3CB
:1034E00002524FF0000A022A08D059F804CB032AEE
:1034F0004FEAEC710AD00DE029E02AE009F107015A
:1035000021F00702F2E802C1914609E00FFA8CFCB3
:103510004FEAEC71042A03D14FFA8CFC4FEAEC71AC
:10352000002907DA0A460021DCF1000C61EB0201F8
:103530002D2202E0220504D52B228DF80420012241
:1035400003E0E20701D02022F7E7904659E00A2184
:1035500002E010220DE010214FF0000A00910BE074
:1035600010224FF0000A44F004040827009203E000
:1035700008224FF0000A0092C4F30252022A05D03A
:1035800059F804CB0021032A08D009E009F107010A
:1035900021F00702F2E802C1914605E01FFA8CFC17
:1035A000042A01D10CF0FF0C4FF00008220728D5A7
:1035B000702806D0009B83F0100353EA0A0305D05D
:1035C0000EE040228DF80420012208E05CEA0102AE
:1035D00006D030228DF804208DF805000222904696
:1035E000009B83F0080353EA0A030AD15CEA010254
:1035F00001D1620705D530228DF804204FF0010873
:103600007F1E582804D034A003900EA802900DE02D
:1036100036A0F9E753466046009AFCF74AFF844615
:103620000398825C0298401E029002705CEA0100DE
:10363000F0D1029806A9081A00F1200A600702D505
:1036400024F4803400E00127574502DDA7EB0A008F
:1036500000E0002000EB0A01009005984144401A68
:103660000590E00306D45B462146179A059800F0C2
:10367000B3F90544002706E001A85A46C05D179932
:1036800090476D1C7F1C4745F6DBE0030CD55B467D
:103690002146179A059800F09FF9054404E0302070
:1036A0005A46179990476D1C0099481E00900029B2
:1036B000F5DC08E0029802995A460078491C02910C
:1036C000179990476D1CBAF10001AAF1010AF1DCCB
:1036D00065E10000092801003031323334353637D6
:1036E000383961626364656600000000303132334E
:1036F00034353637383941424344454600000000EE
:1037000000F058F90544761C307800287FF4ECADC1
:1037100019B02846BDE8F08F620700D4062709F1EA
:10372000070222F0070CFCE80223E14603F0004800
:103730005FEA080C02D00FF2702C0DE05FEA045C27
:1037400002D50FF2682C07E05FEAC47C02D00FF2CA
:10375000602C01E0AFF2700C4FF0FF3823F0004313
:10376000CDF850C065280CD006DC452809D0462885
:103770001DD047283DD13DE0662818D067287ED16E
:1037800038E00021112F01DB112000E0781CCDE989
:10379000000106A90EA8FFF7EDFCDDE90F010E9A66
:1037A00003910021009207F1010A04914DE04FF0CE
:1037B00000400097CDE9011006A90EA8FFF7DAFC3A
:1037C000DDE90F0203920E9B11990022DDF80CA097
:1037D0000093049211B9791C00EB010AB7EB0A00BF
:1037E00004D4C0F1FF3007F1010A0490AAEB0700EE
:1037F000019044E0012F00DA01270021112F01DDA3
:10380000112000E03846CDE9000106A90EA8FFF717
:10381000B1FCDDE90F010E9A0391002104910092A1
:10382000BA4621070CD40399514500DA8A46BAF109
:10383000010F05DD009AAAF10101515C302908D081
:10384000B84202DA10F1040F06DA0121CDE90110C5
:1038500015E0AAF10101E9E7002805DC049901441B
:103860000491AAEB000102E0411C514500DD8A46AB
:103870000499401A401C01904FF00040029020072C
:1038800004D40198504501DBCDF8048000208DF868
:103890004F0002980DF14F07B0F1004F25D02B20BB
:1038A0000E9002984FF0020800280CDA4042029075
:1038B0002D200E9007E00A210298FCF7E4FD30313C
:1038C000029007F8011DB8F10001A8F10108F2DC2F
:1038D00002980028EFD1791E0E980870307800F019
:1038E000200040F0450007F8020D12A8C01B00F1AF
:1038F00007081498007800B1012000EB0A01019834
:1039000001EBE07105984144401A401E0590E00328
:1039100006D45B462146179A059800F05DF80544E9
:103920001498007818B15A46179990476D1CE00317
:1039300024D55B462146179A059800F04DF80544BA
:103940001CE00498002807DBDDE90301884203DD61
:103950000098405C179901E0179930205A4690472B
:10396000049805F10105401C04900198401E019047
:1039700004D12E205A46179990476D1CBAF10001C8
:10398000AAF1010ADDDC05E017F8010B5A46179988
:1039900090476D1CB8F10001A8F10108F4DC5B460A
:1039A0002146179A0598ABE62D0000002B00000079
:1039B000200000002DE9F041044600251E46174670
:1039C000880404D405E039462020B0476D1C641EED
:1039D000F9D52846BDE8F0812DE9F04104460025DF
:1039E0001E469046C80301D5302700E020278804F2
:1039F00004D505E041463846B0476D1C641EF9D534
:103A00002846BDE8F081000013B54FF6FF73012290
:103A100069460248FEF7AAF900981CBD94000020F0
:103A20001FB5FDF707FDFFF733FAFFF7BFF9FFF703
:103A30000DFAFFF7EBF9FFF7C3F80E4CFFF706F9A5
:103A4000FFF744F9FFF786F9606AFCF7EDFC0746DB
:103A50008846206AFCF7E8FC05460E46E069FCF75C
:103A6000E3FC8DE8E00102460B4603A0FFF752FBA2
:103A7000E4E7000000000020252E32662C252E32BF
:103A8000662C252E326620200A000000000000006F
:103A900000000000010203040607080900000000FE
:103AA00001020304C43A00080000002040000000A6
:103AB00054310008043B0008400000209804000036
:103AC0006431000800000000000000000000000059
:103AD00000000000000000000000000000000000E6
:103AE00000000000000000000000000000000000D6
:103AF0000100000010000000000000000024F4009D
:043B000000000000C1
:0400000508000131BD
:00000001FF
